{
  "_format": "hh-sol-artifact-1",
  "contractName": "Faucet",
  "sourceName": "contracts/Faucet.sol",
  "abi": [
    {
      "inputs": [
        {
          "internalType": "address",
          "name": "tokenAddress",
          "type": "address"
        }
      ],
      "stateMutability": "payable",
      "type": "constructor"
    },
    {
      "anonymous": false,
      "inputs": [
        {
          "indexed": true,
          "internalType": "address",
          "name": "from",
          "type": "address"
        },
        {
          "indexed": false,
          "internalType": "uint256",
          "name": "value",
          "type": "uint256"
        }
      ],
      "name": "Deposit",
      "type": "event"
    },
    {
      "anonymous": false,
      "inputs": [
        {
          "indexed": true,
          "internalType": "address",
          "name": "to",
          "type": "address"
        },
        {
          "indexed": false,
          "internalType": "uint256",
          "name": "value",
          "type": "uint256"
        }
      ],
      "name": "Withdraw",
      "type": "event"
    },
    {
      "inputs": [],
      "name": "getBalance",
      "outputs": [
        {
          "internalType": "uint256",
          "name": "",
          "type": "uint256"
        }
      ],
      "stateMutability": "view",
      "type": "function"
    },
    {
      "inputs": [],
      "name": "lockTime",
      "outputs": [
        {
          "internalType": "uint256",
          "name": "",
          "type": "uint256"
        }
      ],
      "stateMutability": "view",
      "type": "function"
    },
    {
      "inputs": [],
      "name": "requestToken",
      "outputs": [],
      "stateMutability": "nonpayable",
      "type": "function"
    },
    {
      "inputs": [
        {
          "internalType": "uint256",
          "name": "_time",
          "type": "uint256"
        }
      ],
      "name": "setLockTime",
      "outputs": [],
      "stateMutability": "nonpayable",
      "type": "function"
    },
    {
      "inputs": [
        {
          "internalType": "uint256",
          "name": "amount",
          "type": "uint256"
        }
      ],
      "name": "setWithDrawAmount",
      "outputs": [],
      "stateMutability": "nonpayable",
      "type": "function"
    },
    {
      "inputs": [],
      "name": "token",
      "outputs": [
        {
          "internalType": "contract IERC20",
          "name": "",
          "type": "address"
        }
      ],
      "stateMutability": "view",
      "type": "function"
    },
    {
      "inputs": [],
      "name": "withDrawAmount",
      "outputs": [
        {
          "internalType": "uint256",
          "name": "",
          "type": "uint256"
        }
      ],
      "stateMutability": "view",
      "type": "function"
    },
    {
      "inputs": [],
      "name": "withdraw",
      "outputs": [],
      "stateMutability": "nonpayable",
      "type": "function"
    },
    {
      "stateMutability": "payable",
      "type": "receive"
    }
  ],
  "bytecode": "0x60806040526802b5e3af16b1880000600255603c60045560405161106e38038061106e83398181016040528101906100379190610121565b80600160006101000a81548173ffffffffffffffffffffffffffffffffffffffff021916908373ffffffffffffffffffffffffffffffffffffffff160217905550336000806101000a81548173ffffffffffffffffffffffffffffffffffffffff021916908373ffffffffffffffffffffffffffffffffffffffff1602179055505061014e565b600080fd5b600073ffffffffffffffffffffffffffffffffffffffff82169050919050565b60006100ee826100c3565b9050919050565b6100fe816100e3565b811461010957600080fd5b50565b60008151905061011b816100f5565b92915050565b600060208284031215610137576101366100be565b5b60006101458482850161010c565b91505092915050565b610f118061015d6000396000f3fe60806040526004361061007f5760003560e01c80638ab7439b1161004e5780638ab7439b1461015d578063ae04d45d14610188578063c6dace44146101b1578063fc0c546a146101da576100d4565b80630d668087146100d957806312065fe0146101045780633ccfd60b1461012f5780634d7ec62814610146576100d4565b366100d4573373ffffffffffffffffffffffffffffffffffffffff167fe1fffcc4923d04b559f4d29a8bfc6cda04eb5b0d3c460751c2402c5c5cc9109c346040516100ca91906109be565b60405180910390a2005b600080fd5b3480156100e557600080fd5b506100ee610205565b6040516100fb91906109be565b60405180910390f35b34801561011057600080fd5b5061011961020b565b60405161012691906109be565b60405180910390f35b34801561013b57600080fd5b506101446102ae565b005b34801561015257600080fd5b5061015b610563565b005b34801561016957600080fd5b5061017261082a565b60405161017f91906109be565b60405180910390f35b34801561019457600080fd5b506101af60048036038101906101aa9190610a0a565b610830565b005b3480156101bd57600080fd5b506101d860048036038101906101d39190610a0a565b6108d4565b005b3480156101e657600080fd5b506101ef61097f565b6040516101fc9190610ab6565b60405180910390f35b60045481565b6000600160009054906101000a900473ffffffffffffffffffffffffffffffffffffffff1673ffffffffffffffffffffffffffffffffffffffff166370a08231306040518263ffffffff1660e01b81526004016102689190610af2565b602060405180830381865afa158015610285573d6000803e3d6000fd5b505050506040513d601f19601f820116820180604052508101906102a99190610b22565b905090565b60008054906101000a900473ffffffffffffffffffffffffffffffffffffffff1673ffffffffffffffffffffffffffffffffffffffff163373ffffffffffffffffffffffffffffffffffffffff161461033c576040517f08c379a000000000000000000000000000000000000000000000000000000000815260040161033390610bd2565b60405180910390fd5b3373ffffffffffffffffffffffffffffffffffffffff167f884edad9ce6fa2440d8a54cc123490eb96d2768479d49ff9c7366125a9424364600160009054906101000a900473ffffffffffffffffffffffffffffffffffffffff1673ffffffffffffffffffffffffffffffffffffffff166370a08231306040518263ffffffff1660e01b81526004016103cf9190610af2565b602060405180830381865afa1580156103ec573d6000803e3d6000fd5b505050506040513d601f19601f820116820180604052508101906104109190610b22565b60405161041d91906109be565b60405180910390a2600160009054906101000a900473ffffffffffffffffffffffffffffffffffffffff1673ffffffffffffffffffffffffffffffffffffffff1663a9059cbb33600160009054906101000a900473ffffffffffffffffffffffffffffffffffffffff1673ffffffffffffffffffffffffffffffffffffffff166370a08231306040518263ffffffff1660e01b81526004016104bf9190610af2565b602060405180830381865afa1580156104dc573d6000803e3d6000fd5b505050506040513d601f19601f820116820180604052508101906105009190610b22565b6040518363ffffffff1660e01b815260040161051d929190610bf2565b6020604051808303816000875af115801561053c573d6000803e3d6000fd5b505050506040513d601f19601f820116820180604052508101906105609190610c53565b50565b600073ffffffffffffffffffffffffffffffffffffffff163373ffffffffffffffffffffffffffffffffffffffff16036105d2576040517f08c379a00000000000000000000000000000000000000000000000000000000081526004016105c990610cf2565b60405180910390fd5b600254600160009054906101000a900473ffffffffffffffffffffffffffffffffffffffff1673ffffffffffffffffffffffffffffffffffffffff166370a08231306040518263ffffffff1660e01b81526004016106309190610af2565b602060405180830381865afa15801561064d573d6000803e3d6000fd5b505050506040513d601f19601f820116820180604052508101906106719190610b22565b10156106b2576040517f08c379a00000000000000000000000000000000000000000000000000000000081526004016106a990610d84565b60405180910390fd5b600360003373ffffffffffffffffffffffffffffffffffffffff1673ffffffffffffffffffffffffffffffffffffffff16815260200190815260200160002054421015610734576040517f08c379a000000000000000000000000000000000000000000000000000000000815260040161072b90610e16565b60405180910390fd5b600454426107429190610e65565b600360003373ffffffffffffffffffffffffffffffffffffffff1673ffffffffffffffffffffffffffffffffffffffff16815260200190815260200160002081905550600160009054906101000a900473ffffffffffffffffffffffffffffffffffffffff1673ffffffffffffffffffffffffffffffffffffffff1663a9059cbb336002546040518363ffffffff1660e01b81526004016107e4929190610bf2565b6020604051808303816000875af1158015610803573d6000803e3d6000fd5b505050506040513d601f19601f820116820180604052508101906108279190610c53565b50565b60025481565b60008054906101000a900473ffffffffffffffffffffffffffffffffffffffff1673ffffffffffffffffffffffffffffffffffffffff163373ffffffffffffffffffffffffffffffffffffffff16146108be576040517f08c379a00000000000000000000000000000000000000000000000000000000081526004016108b590610bd2565b60405180910390fd5b603c816108cb9190610e99565b60048190555050565b60008054906101000a900473ffffffffffffffffffffffffffffffffffffffff1673ffffffffffffffffffffffffffffffffffffffff163373ffffffffffffffffffffffffffffffffffffffff1614610962576040517f08c379a000000000000000000000000000000000000000000000000000000000815260040161095990610bd2565b60405180910390fd5b670de0b6b3a7640000816109769190610e99565b60028190555050565b600160009054906101000a900473ffffffffffffffffffffffffffffffffffffffff1681565b6000819050919050565b6109b8816109a5565b82525050565b60006020820190506109d360008301846109af565b92915050565b600080fd5b6109e7816109a5565b81146109f257600080fd5b50565b600081359050610a04816109de565b92915050565b600060208284031215610a2057610a1f6109d9565b5b6000610a2e848285016109f5565b91505092915050565b600073ffffffffffffffffffffffffffffffffffffffff82169050919050565b6000819050919050565b6000610a7c610a77610a7284610a37565b610a57565b610a37565b9050919050565b6000610a8e82610a61565b9050919050565b6000610aa082610a83565b9050919050565b610ab081610a95565b82525050565b6000602082019050610acb6000830184610aa7565b92915050565b6000610adc82610a37565b9050919050565b610aec81610ad1565b82525050565b6000602082019050610b076000830184610ae3565b92915050565b600081519050610b1c816109de565b92915050565b600060208284031215610b3857610b376109d9565b5b6000610b4684828501610b0d565b91505092915050565b600082825260208201905092915050565b7f596f7520646f6e27742068617665207065726d697373696f6e2c206f6e6c792060008201527f6f776e65722063616e20706572666f726d207468697320616374696f6e000000602082015250565b6000610bbc603d83610b4f565b9150610bc782610b60565b604082019050919050565b60006020820190508181036000830152610beb81610baf565b9050919050565b6000604082019050610c076000830185610ae3565b610c1460208301846109af565b9392505050565b60008115159050919050565b610c3081610c1b565b8114610c3b57600080fd5b50565b600081519050610c4d81610c27565b92915050565b600060208284031215610c6957610c686109d9565b5b6000610c7784828501610c3e565b91505092915050565b7f52657175657374206d757374206e6f74206f726967696e6174652066726f6d2060008201527f61207a65726f206163636f756e74000000000000000000000000000000000000602082015250565b6000610cdc602e83610b4f565b9150610ce782610c80565b604082019050919050565b60006020820190508181036000830152610d0b81610ccf565b9050919050565b7f496e73756666696369656e742062616c616e636520696e20666175636574206660008201527f6f72207769746864726177207265717565737400000000000000000000000000602082015250565b6000610d6e603383610b4f565b9150610d7982610d12565b604082019050919050565b60006020820190508181036000830152610d9d81610d61565b9050919050565b7f496e73756666696369656e742074696d6520656c61707365642073696e63652060008201527f6c6173742077697468647261772c2074727920616761696e206c617465720000602082015250565b6000610e00603e83610b4f565b9150610e0b82610da4565b604082019050919050565b60006020820190508181036000830152610e2f81610df3565b9050919050565b7f4e487b7100000000000000000000000000000000000000000000000000000000600052601160045260246000fd5b6000610e70826109a5565b9150610e7b836109a5565b9250828201905080821115610e9357610e92610e36565b5b92915050565b6000610ea4826109a5565b9150610eaf836109a5565b9250828202610ebd816109a5565b91508282048414831517610ed457610ed3610e36565b5b509291505056fea2646970667358221220d68e013aa5b44ff0db6cbcd0ce71edc2b4a4c98ebc0b039de7dac532cf398d4d64736f6c63430008180033",
  "linkReferences": {},
  "deployedLinkReferences": {}
}