{
  "_format": "hh-sol-artifact-1",
  "contractName": "NewToken",
  "sourceName": "contracts/NewToken.sol",
  "abi": [
    {
      "inputs": [
        {
          "internalType": "uint256",
          "name": "cap",
          "type": "uint256"
        },
        {
          "internalType": "uint256",
          "name": "reward",
          "type": "uint256"
        }
      ],
      "stateMutability": "nonpayable",
      "type": "constructor"
    },
    {
      "inputs": [
        {
          "internalType": "uint256",
          "name": "increasedSupply",
          "type": "uint256"
        },
        {
          "internalType": "uint256",
          "name": "cap",
          "type": "uint256"
        }
      ],
      "name": "ERC20ExceededCap",
      "type": "error"
    },
    {
      "inputs": [
        {
          "internalType": "address",
          "name": "spender",
          "type": "address"
        },
        {
          "internalType": "uint256",
          "name": "allowance",
          "type": "uint256"
        },
        {
          "internalType": "uint256",
          "name": "needed",
          "type": "uint256"
        }
      ],
      "name": "ERC20InsufficientAllowance",
      "type": "error"
    },
    {
      "inputs": [
        {
          "internalType": "address",
          "name": "sender",
          "type": "address"
        },
        {
          "internalType": "uint256",
          "name": "balance",
          "type": "uint256"
        },
        {
          "internalType": "uint256",
          "name": "needed",
          "type": "uint256"
        }
      ],
      "name": "ERC20InsufficientBalance",
      "type": "error"
    },
    {
      "inputs": [
        {
          "internalType": "address",
          "name": "approver",
          "type": "address"
        }
      ],
      "name": "ERC20InvalidApprover",
      "type": "error"
    },
    {
      "inputs": [
        {
          "internalType": "uint256",
          "name": "cap",
          "type": "uint256"
        }
      ],
      "name": "ERC20InvalidCap",
      "type": "error"
    },
    {
      "inputs": [
        {
          "internalType": "address",
          "name": "receiver",
          "type": "address"
        }
      ],
      "name": "ERC20InvalidReceiver",
      "type": "error"
    },
    {
      "inputs": [
        {
          "internalType": "address",
          "name": "sender",
          "type": "address"
        }
      ],
      "name": "ERC20InvalidSender",
      "type": "error"
    },
    {
      "inputs": [
        {
          "internalType": "address",
          "name": "spender",
          "type": "address"
        }
      ],
      "name": "ERC20InvalidSpender",
      "type": "error"
    },
    {
      "anonymous": false,
      "inputs": [
        {
          "indexed": true,
          "internalType": "address",
          "name": "owner",
          "type": "address"
        },
        {
          "indexed": true,
          "internalType": "address",
          "name": "spender",
          "type": "address"
        },
        {
          "indexed": false,
          "internalType": "uint256",
          "name": "value",
          "type": "uint256"
        }
      ],
      "name": "Approval",
      "type": "event"
    },
    {
      "anonymous": false,
      "inputs": [
        {
          "indexed": true,
          "internalType": "address",
          "name": "from",
          "type": "address"
        },
        {
          "indexed": true,
          "internalType": "address",
          "name": "to",
          "type": "address"
        },
        {
          "indexed": false,
          "internalType": "uint256",
          "name": "value",
          "type": "uint256"
        }
      ],
      "name": "Transfer",
      "type": "event"
    },
    {
      "inputs": [
        {
          "internalType": "address",
          "name": "owner",
          "type": "address"
        },
        {
          "internalType": "address",
          "name": "spender",
          "type": "address"
        }
      ],
      "name": "allowance",
      "outputs": [
        {
          "internalType": "uint256",
          "name": "",
          "type": "uint256"
        }
      ],
      "stateMutability": "view",
      "type": "function"
    },
    {
      "inputs": [
        {
          "internalType": "address",
          "name": "spender",
          "type": "address"
        },
        {
          "internalType": "uint256",
          "name": "value",
          "type": "uint256"
        }
      ],
      "name": "approve",
      "outputs": [
        {
          "internalType": "bool",
          "name": "",
          "type": "bool"
        }
      ],
      "stateMutability": "nonpayable",
      "type": "function"
    },
    {
      "inputs": [
        {
          "internalType": "address",
          "name": "account",
          "type": "address"
        }
      ],
      "name": "balanceOf",
      "outputs": [
        {
          "internalType": "uint256",
          "name": "",
          "type": "uint256"
        }
      ],
      "stateMutability": "view",
      "type": "function"
    },
    {
      "inputs": [],
      "name": "blockReward",
      "outputs": [
        {
          "internalType": "uint256",
          "name": "",
          "type": "uint256"
        }
      ],
      "stateMutability": "view",
      "type": "function"
    },
    {
      "inputs": [
        {
          "internalType": "uint256",
          "name": "value",
          "type": "uint256"
        }
      ],
      "name": "burn",
      "outputs": [],
      "stateMutability": "nonpayable",
      "type": "function"
    },
    {
      "inputs": [
        {
          "internalType": "address",
          "name": "account",
          "type": "address"
        },
        {
          "internalType": "uint256",
          "name": "value",
          "type": "uint256"
        }
      ],
      "name": "burnFrom",
      "outputs": [],
      "stateMutability": "nonpayable",
      "type": "function"
    },
    {
      "inputs": [],
      "name": "cap",
      "outputs": [
        {
          "internalType": "uint256",
          "name": "",
          "type": "uint256"
        }
      ],
      "stateMutability": "view",
      "type": "function"
    },
    {
      "inputs": [],
      "name": "decimals",
      "outputs": [
        {
          "internalType": "uint8",
          "name": "",
          "type": "uint8"
        }
      ],
      "stateMutability": "view",
      "type": "function"
    },
    {
      "inputs": [],
      "name": "destroy",
      "outputs": [],
      "stateMutability": "nonpayable",
      "type": "function"
    },
    {
      "inputs": [],
      "name": "isActive",
      "outputs": [
        {
          "internalType": "bool",
          "name": "",
          "type": "bool"
        }
      ],
      "stateMutability": "view",
      "type": "function"
    },
    {
      "inputs": [],
      "name": "name",
      "outputs": [
        {
          "internalType": "string",
          "name": "",
          "type": "string"
        }
      ],
      "stateMutability": "view",
      "type": "function"
    },
    {
      "inputs": [],
      "name": "owner",
      "outputs": [
        {
          "internalType": "address payable",
          "name": "",
          "type": "address"
        }
      ],
      "stateMutability": "view",
      "type": "function"
    },
    {
      "inputs": [
        {
          "internalType": "uint256",
          "name": "reward",
          "type": "uint256"
        }
      ],
      "name": "setBlockReward",
      "outputs": [],
      "stateMutability": "nonpayable",
      "type": "function"
    },
    {
      "inputs": [],
      "name": "symbol",
      "outputs": [
        {
          "internalType": "string",
          "name": "",
          "type": "string"
        }
      ],
      "stateMutability": "view",
      "type": "function"
    },
    {
      "inputs": [],
      "name": "totalSupply",
      "outputs": [
        {
          "internalType": "uint256",
          "name": "",
          "type": "uint256"
        }
      ],
      "stateMutability": "view",
      "type": "function"
    },
    {
      "inputs": [
        {
          "internalType": "address",
          "name": "to",
          "type": "address"
        },
        {
          "internalType": "uint256",
          "name": "value",
          "type": "uint256"
        }
      ],
      "name": "transfer",
      "outputs": [
        {
          "internalType": "bool",
          "name": "",
          "type": "bool"
        }
      ],
      "stateMutability": "nonpayable",
      "type": "function"
    },
    {
      "inputs": [
        {
          "internalType": "address",
          "name": "from",
          "type": "address"
        },
        {
          "internalType": "address",
          "name": "to",
          "type": "address"
        },
        {
          "internalType": "uint256",
          "name": "value",
          "type": "uint256"
        }
      ],
      "name": "transferFrom",
      "outputs": [
        {
          "internalType": "bool",
          "name": "",
          "type": "bool"
        }
      ],
      "stateMutability": "nonpayable",
      "type": "function"
    }
  ],
  "bytecode": "0x60a06040523480156200001157600080fd5b50604051620020fe380380620020fe8339818101604052810190620000379190620005db565b670de0b6b3a7640000826200004d919062000651565b6040518060400160405280600b81526020017f53656e706169546f6b656e0000000000000000000000000000000000000000008152506040518060400160405280600281526020017f53540000000000000000000000000000000000000000000000000000000000008152508160039081620000ca91906200090c565b508060049081620000dc91906200090c565b50505060008103620001285760006040517f392e1e270000000000000000000000000000000000000000000000000000000081526004016200011f919062000a36565b60405180910390fd5b80608081815250505033600560006101000a81548173ffffffffffffffffffffffffffffffffffffffff021916908373ffffffffffffffffffffffffffffffffffffffff160217905550620001b1600560009054906101000a900473ffffffffffffffffffffffffffffffffffffffff166a295be96e64066972000000620001f060201b60201c565b670de0b6b3a764000081620001c7919062000651565b6006819055506001600760006101000a81548160ff021916908315150217905550505062000b88565b600073ffffffffffffffffffffffffffffffffffffffff168273ffffffffffffffffffffffffffffffffffffffff1603620002655760006040517fec442f050000000000000000000000000000000000000000000000000000000081526004016200025c919062000a98565b60405180910390fd5b62000279600083836200027d60201b60201c565b5050565b620002908383836200029560201b60201c565b505050565b620002a88383836200035760201b60201c565b600073ffffffffffffffffffffffffffffffffffffffff168373ffffffffffffffffffffffffffffffffffffffff160362000352576000620002ef6200058760201b60201c565b90506000620003036200059160201b60201c565b9050818111156200034f5780826040517f9e79f8540000000000000000000000000000000000000000000000000000000081526004016200034692919062000ac6565b60405180910390fd5b50505b505050565b600073ffffffffffffffffffffffffffffffffffffffff168373ffffffffffffffffffffffffffffffffffffffff1603620003ad578060026000828254620003a0919062000af3565b9250508190555062000483565b60008060008573ffffffffffffffffffffffffffffffffffffffff1673ffffffffffffffffffffffffffffffffffffffff168152602001908152602001600020549050818110156200043c578381836040517fe450d38c000000000000000000000000000000000000000000000000000000008152600401620004339392919062000b2e565b60405180910390fd5b8181036000808673ffffffffffffffffffffffffffffffffffffffff1673ffffffffffffffffffffffffffffffffffffffff16815260200190815260200160002081905550505b600073ffffffffffffffffffffffffffffffffffffffff168273ffffffffffffffffffffffffffffffffffffffff1603620004ce57806002600082825403925050819055506200051b565b806000808473ffffffffffffffffffffffffffffffffffffffff1673ffffffffffffffffffffffffffffffffffffffff168152602001908152602001600020600082825401925050819055505b8173ffffffffffffffffffffffffffffffffffffffff168373ffffffffffffffffffffffffffffffffffffffff167fddf252ad1be2c89b69c2b068fc378daa952ba7f163c4a11628f55a4df523b3ef836040516200057a919062000b6b565b60405180910390a3505050565b6000608051905090565b6000600254905090565b600080fd5b6000819050919050565b620005b581620005a0565b8114620005c157600080fd5b50565b600081519050620005d581620005aa565b92915050565b60008060408385031215620005f557620005f46200059b565b5b60006200060585828601620005c4565b92505060206200061885828601620005c4565b9150509250929050565b7f4e487b7100000000000000000000000000000000000000000000000000000000600052601160045260246000fd5b60006200065e82620005a0565b91506200066b83620005a0565b92508282026200067b81620005a0565b9150828204841483151762000695576200069462000622565b5b5092915050565b600081519050919050565b7f4e487b7100000000000000000000000000000000000000000000000000000000600052604160045260246000fd5b7f4e487b7100000000000000000000000000000000000000000000000000000000600052602260045260246000fd5b600060028204905060018216806200071e57607f821691505b602082108103620007345762000733620006d6565b5b50919050565b60008190508160005260206000209050919050565b60006020601f8301049050919050565b600082821b905092915050565b6000600883026200079e7fffffffffffffffffffffffffffffffffffffffffffffffffffffffffffffffff826200075f565b620007aa86836200075f565b95508019841693508086168417925050509392505050565b6000819050919050565b6000620007ed620007e7620007e184620005a0565b620007c2565b620005a0565b9050919050565b6000819050919050565b6200080983620007cc565b620008216200081882620007f4565b8484546200076c565b825550505050565b600090565b6200083862000829565b62000845818484620007fe565b505050565b5b818110156200086d57620008616000826200082e565b6001810190506200084b565b5050565b601f821115620008bc5762000886816200073a565b62000891846200074f565b81016020851015620008a1578190505b620008b9620008b0856200074f565b8301826200084a565b50505b505050565b600082821c905092915050565b6000620008e160001984600802620008c1565b1980831691505092915050565b6000620008fc8383620008ce565b9150826002028217905092915050565b62000917826200069c565b67ffffffffffffffff811115620009335762000932620006a7565b5b6200093f825462000705565b6200094c82828562000871565b600060209050601f8311600181146200098457600084156200096f578287015190505b6200097b8582620008ee565b865550620009eb565b601f19841662000994866200073a565b60005b82811015620009be5784890151825560018201915060208501945060208101905062000997565b86831015620009de5784890151620009da601f891682620008ce565b8355505b6001600288020188555050505b505050505050565b6000819050919050565b600062000a1e62000a1862000a1284620009f3565b620007c2565b620005a0565b9050919050565b62000a3081620009fd565b82525050565b600060208201905062000a4d600083018462000a25565b92915050565b600073ffffffffffffffffffffffffffffffffffffffff82169050919050565b600062000a808262000a53565b9050919050565b62000a928162000a73565b82525050565b600060208201905062000aaf600083018462000a87565b92915050565b62000ac081620005a0565b82525050565b600060408201905062000add600083018562000ab5565b62000aec602083018462000ab5565b9392505050565b600062000b0082620005a0565b915062000b0d83620005a0565b925082820190508082111562000b285762000b2762000622565b5b92915050565b600060608201905062000b45600083018662000a87565b62000b54602083018562000ab5565b62000b63604083018462000ab5565b949350505050565b600060208201905062000b82600083018462000ab5565b92915050565b60805161155a62000ba4600039600061055e015261155a6000f3fe608060405234801561001057600080fd5b506004361061010b5760003560e01c8063355274ea116100a257806383197ef01161007157806383197ef0146102a85780638da5cb5b146102b257806395d89b41146102d0578063a9059cbb146102ee578063dd62ed3e1461031e5761010b565b8063355274ea1461022257806342966c681461024057806370a082311461025c57806379cc67901461028c5761010b565b80631a18e707116100de5780631a18e7071461019a57806322f3e2d4146101b657806323b872dd146101d4578063313ce567146102045761010b565b806306fdde0314610110578063095ea7b31461012e5780630ac168a11461015e57806318160ddd1461017c575b600080fd5b61011861034e565b6040516101259190610fdc565b60405180910390f35b61014860048036038101906101439190611097565b6103e0565b60405161015591906110f2565b60405180910390f35b610166610403565b604051610173919061111c565b60405180910390f35b610184610409565b604051610191919061111c565b60405180910390f35b6101b460048036038101906101af9190611137565b610413565b005b6101be61050f565b6040516101cb91906110f2565b60405180910390f35b6101ee60048036038101906101e99190611164565b610522565b6040516101fb91906110f2565b60405180910390f35b61020c610551565b60405161021991906111d3565b60405180910390f35b61022a61055a565b604051610237919061111c565b60405180910390f35b61025a60048036038101906102559190611137565b610582565b005b610276600480360381019061027191906111ee565b610596565b604051610283919061111c565b60405180910390f35b6102a660048036038101906102a19190611097565b6105de565b005b6102b06105fe565b005b6102ba610714565b6040516102c7919061123c565b60405180910390f35b6102d861073a565b6040516102e59190610fdc565b60405180910390f35b61030860048036038101906103039190611097565b6107cc565b60405161031591906110f2565b60405180910390f35b61033860048036038101906103339190611257565b6107ef565b604051610345919061111c565b60405180910390f35b60606003805461035d906112c6565b80601f0160208091040260200160405190810160405280929190818152602001828054610389906112c6565b80156103d65780601f106103ab576101008083540402835291602001916103d6565b820191906000526020600020905b8154815290600101906020018083116103b957829003601f168201915b5050505050905090565b6000806103eb610876565b90506103f881858561087e565b600191505092915050565b60065481565b6000600254905090565b600560009054906101000a900473ffffffffffffffffffffffffffffffffffffffff1673ffffffffffffffffffffffffffffffffffffffff163373ffffffffffffffffffffffffffffffffffffffff16146104a3576040517f08c379a000000000000000000000000000000000000000000000000000000000815260040161049a90611369565b60405180910390fd5b600760009054906101000a900460ff166104f2576040517f08c379a00000000000000000000000000000000000000000000000000000000081526004016104e9906113d5565b60405180910390fd5b670de0b6b3a7640000816105069190611424565b60068190555050565b600760009054906101000a900460ff1681565b60008061052d610876565b905061053a858285610890565b610545858585610924565b60019150509392505050565b60006012905090565b60007f0000000000000000000000000000000000000000000000000000000000000000905090565b61059361058d610876565b82610a18565b50565b60008060008373ffffffffffffffffffffffffffffffffffffffff1673ffffffffffffffffffffffffffffffffffffffff168152602001908152602001600020549050919050565b6105f0826105ea610876565b83610890565b6105fa8282610a18565b5050565b600560009054906101000a900473ffffffffffffffffffffffffffffffffffffffff1673ffffffffffffffffffffffffffffffffffffffff163373ffffffffffffffffffffffffffffffffffffffff161461068e576040517f08c379a000000000000000000000000000000000000000000000000000000000815260040161068590611369565b60405180910390fd5b600560009054906101000a900473ffffffffffffffffffffffffffffffffffffffff1673ffffffffffffffffffffffffffffffffffffffff166108fc479081150290604051600060405180830381858888f193505050501580156106f6573d6000803e3d6000fd5b506000600760006101000a81548160ff021916908315150217905550565b600560009054906101000a900473ffffffffffffffffffffffffffffffffffffffff1681565b606060048054610749906112c6565b80601f0160208091040260200160405190810160405280929190818152602001828054610775906112c6565b80156107c25780601f10610797576101008083540402835291602001916107c2565b820191906000526020600020905b8154815290600101906020018083116107a557829003601f168201915b5050505050905090565b6000806107d7610876565b90506107e4818585610924565b600191505092915050565b6000600160008473ffffffffffffffffffffffffffffffffffffffff1673ffffffffffffffffffffffffffffffffffffffff16815260200190815260200160002060008373ffffffffffffffffffffffffffffffffffffffff1673ffffffffffffffffffffffffffffffffffffffff16815260200190815260200160002054905092915050565b600033905090565b61088b8383836001610a9a565b505050565b600061089c84846107ef565b90507fffffffffffffffffffffffffffffffffffffffffffffffffffffffffffffffff811461091e578181101561090e578281836040517ffb8f41b200000000000000000000000000000000000000000000000000000000815260040161090593929190611475565b60405180910390fd5b61091d84848484036000610a9a565b5b50505050565b600073ffffffffffffffffffffffffffffffffffffffff168373ffffffffffffffffffffffffffffffffffffffff16036109965760006040517f96c6fd1e00000000000000000000000000000000000000000000000000000000815260040161098d91906114ac565b60405180910390fd5b600073ffffffffffffffffffffffffffffffffffffffff168273ffffffffffffffffffffffffffffffffffffffff1603610a085760006040517fec442f050000000000000000000000000000000000000000000000000000000081526004016109ff91906114ac565b60405180910390fd5b610a13838383610c71565b505050565b600073ffffffffffffffffffffffffffffffffffffffff168273ffffffffffffffffffffffffffffffffffffffff1603610a8a5760006040517f96c6fd1e000000000000000000000000000000000000000000000000000000008152600401610a8191906114ac565b60405180910390fd5b610a9682600083610c71565b5050565b600073ffffffffffffffffffffffffffffffffffffffff168473ffffffffffffffffffffffffffffffffffffffff1603610b0c5760006040517fe602df05000000000000000000000000000000000000000000000000000000008152600401610b0391906114ac565b60405180910390fd5b600073ffffffffffffffffffffffffffffffffffffffff168373ffffffffffffffffffffffffffffffffffffffff1603610b7e5760006040517f94280d62000000000000000000000000000000000000000000000000000000008152600401610b7591906114ac565b60405180910390fd5b81600160008673ffffffffffffffffffffffffffffffffffffffff1673ffffffffffffffffffffffffffffffffffffffff16815260200190815260200160002060008573ffffffffffffffffffffffffffffffffffffffff1673ffffffffffffffffffffffffffffffffffffffff168152602001908152602001600020819055508015610c6b578273ffffffffffffffffffffffffffffffffffffffff168473ffffffffffffffffffffffffffffffffffffffff167f8c5be1e5ebec7d5bd14f71427d1e84f3dd0314c0f7b2291e5b200ac8c7c3b92584604051610c62919061111c565b60405180910390a35b50505050565b610c7c838383610c81565b505050565b610c8c838383610d27565b600073ffffffffffffffffffffffffffffffffffffffff168373ffffffffffffffffffffffffffffffffffffffff1603610d22576000610cca61055a565b90506000610cd6610409565b905081811115610d1f5780826040517f9e79f854000000000000000000000000000000000000000000000000000000008152600401610d169291906114c7565b60405180910390fd5b50505b505050565b600073ffffffffffffffffffffffffffffffffffffffff168373ffffffffffffffffffffffffffffffffffffffff1603610d79578060026000828254610d6d91906114f0565b92505081905550610e4c565b60008060008573ffffffffffffffffffffffffffffffffffffffff1673ffffffffffffffffffffffffffffffffffffffff16815260200190815260200160002054905081811015610e05578381836040517fe450d38c000000000000000000000000000000000000000000000000000000008152600401610dfc93929190611475565b60405180910390fd5b8181036000808673ffffffffffffffffffffffffffffffffffffffff1673ffffffffffffffffffffffffffffffffffffffff16815260200190815260200160002081905550505b600073ffffffffffffffffffffffffffffffffffffffff168273ffffffffffffffffffffffffffffffffffffffff1603610e955780600260008282540392505081905550610ee2565b806000808473ffffffffffffffffffffffffffffffffffffffff1673ffffffffffffffffffffffffffffffffffffffff168152602001908152602001600020600082825401925050819055505b8173ffffffffffffffffffffffffffffffffffffffff168373ffffffffffffffffffffffffffffffffffffffff167fddf252ad1be2c89b69c2b068fc378daa952ba7f163c4a11628f55a4df523b3ef83604051610f3f919061111c565b60405180910390a3505050565b600081519050919050565b600082825260208201905092915050565b60005b83811015610f86578082015181840152602081019050610f6b565b60008484015250505050565b6000601f19601f8301169050919050565b6000610fae82610f4c565b610fb88185610f57565b9350610fc8818560208601610f68565b610fd181610f92565b840191505092915050565b60006020820190508181036000830152610ff68184610fa3565b905092915050565b600080fd5b600073ffffffffffffffffffffffffffffffffffffffff82169050919050565b600061102e82611003565b9050919050565b61103e81611023565b811461104957600080fd5b50565b60008135905061105b81611035565b92915050565b6000819050919050565b61107481611061565b811461107f57600080fd5b50565b6000813590506110918161106b565b92915050565b600080604083850312156110ae576110ad610ffe565b5b60006110bc8582860161104c565b92505060206110cd85828601611082565b9150509250929050565b60008115159050919050565b6110ec816110d7565b82525050565b600060208201905061110760008301846110e3565b92915050565b61111681611061565b82525050565b6000602082019050611131600083018461110d565b92915050565b60006020828403121561114d5761114c610ffe565b5b600061115b84828501611082565b91505092915050565b60008060006060848603121561117d5761117c610ffe565b5b600061118b8682870161104c565b935050602061119c8682870161104c565b92505060406111ad86828701611082565b9150509250925092565b600060ff82169050919050565b6111cd816111b7565b82525050565b60006020820190506111e860008301846111c4565b92915050565b60006020828403121561120457611203610ffe565b5b60006112128482850161104c565b91505092915050565b600061122682611003565b9050919050565b6112368161121b565b82525050565b6000602082019050611251600083018461122d565b92915050565b6000806040838503121561126e5761126d610ffe565b5b600061127c8582860161104c565b925050602061128d8582860161104c565b9150509250929050565b7f4e487b7100000000000000000000000000000000000000000000000000000000600052602260045260246000fd5b600060028204905060018216806112de57607f821691505b6020821081036112f1576112f0611297565b5b50919050565b7f596f7520646f6e27742068617665207065726d697373696f6e2c206f6e6c792060008201527f6f776e65722063616e20706572666f726d207468697320616374696f6e000000602082015250565b6000611353603d83610f57565b915061135e826112f7565b604082019050919050565b6000602082019050818103600083015261138281611346565b9050919050565b7f436f6e7472616374206973206e6f742061637469766500000000000000000000600082015250565b60006113bf601683610f57565b91506113ca82611389565b602082019050919050565b600060208201905081810360008301526113ee816113b2565b9050919050565b7f4e487b7100000000000000000000000000000000000000000000000000000000600052601160045260246000fd5b600061142f82611061565b915061143a83611061565b925082820261144881611061565b9150828204841483151761145f5761145e6113f5565b5b5092915050565b61146f81611023565b82525050565b600060608201905061148a6000830186611466565b611497602083018561110d565b6114a4604083018461110d565b949350505050565b60006020820190506114c16000830184611466565b92915050565b60006040820190506114dc600083018561110d565b6114e9602083018461110d565b9392505050565b60006114fb82611061565b915061150683611061565b925082820190508082111561151e5761151d6113f5565b5b9291505056fea26469706673582212202f59662162d87d8d988c3c869fef1672d8c4e0c96392aa62a3cd518238e5891964736f6c63430008180033",
  "linkReferences": {},
  "deployedLinkReferences": {}
}